:020000040800F2
:100000000000022001B2000819AF000827AF000865
:100010002DAF000833AF000839AF00080000000022
:10002000000000000000000000000000E17F000868
:100030003FAF000800000000218200084DAF00081B
:1000400051B2000851B2000851B2000851B2000884
:1000500051B2000851B2000851B2000851B2000874
:1000600051B2000851B2000851B2000851B2000864
:1000700051B2000851B2000851B2000851B2000854
:1000800051B2000851B2000851B2000851B2000844
:1000900051B2000851B2000851B2000851B2000834
:1000A00051B2000851B2000851B2000851B2000824
:1000B00051B2000851B2000851B2000851B2000814
:1000C00051B2000851B2000851B2000851B2000804
:1000D00051B200085DAF000851B2000851B20008EB
:1000E00051B2000851B2000851B2000851B20008E4
:1000F00051B2000851B2000851B2000851B20008D4
:1001000051B2000871AF000851B2000851B20008A6
:1001100051B2000851B2000851B2000851B20008B3
:1001200051B2000851B2000885AF000899AF00082D
:1001300051B2000851B2000851B2000851B2000893
:1001400051B2000851B2000851B2000851B2000883
:1001500051B20008ADAF0008C1AF000851B20008AD
:1001600051B2000851B2000851B2000851B2000863
:1001700051B2000851B2000851B20008000000005E
:0801800051B2000851B2000861
:1001900010B5054C237833B9044B13B10448AFF3C1
:1001A00000800123237010BD4000002000000000EB
:1001B000C4B2000808B5034B1BB103490348AFF3B1
:1001C000008008BD0000000044000020C4B2000808
:1001D00053B94AB9002908BF00281CBF4FF0FF31AE
:1001E0004FF0FF3000F07AB9ADF1080C6DE904CEA4
:1001F00000F006F8DDF804E0DDE9022304B0704702
:100200002DE9F0478C460D460446089E002B51D13F
:100210008A4217466DD9B2FA82FEBEF1000F0BD0AA
:10022000CEF1200C01FA0EF520FA0CFC02FA0EF7C2
:100230004CEA050C00FA0EF44FEA174A250CBCFBF9
:10024000FAF81FFA87F90AFB18CC45EA0C4508FBB7
:1002500009F3AB420AD9ED1908F1FF3280F023818E
:10026000AB4240F22081A8F102083D44ED1AA4B24D
:10027000B5FBFAF00AFB105544EA054400FB09F906
:10028000A14509D9E41900F1FF3380F00A81A145A5
:1002900040F2078102383C44A4EB090440EA0840DC
:1002A0000021002E61D024FA0EF400233460736024
:1002B000BDE8F0878B4207D9002E54D0002186E894
:1002C00021000846BDE8F087B3FA83F1002940F029
:1002D0008E80AB4202D3824200F2FA80841A65EB30
:1002E00003050120AC46002E3FD086E81010BDE883
:1002F000F08712B90127B7FBF2F7B7FA87FEBEF114
:10030000000F34D1EB1B3A0C1FFA87FC0121B3FB21
:10031000F2F8250C02FB183345EA03450CFB08F301
:10032000AB4207D9ED1908F1FF3002D2AB4200F21F
:10033000D1808046ED1AA3B2B5FBF2F002FB105556
:1003400043EA05440CFB00FCA44507D9E41900F17D
:10035000FF3302D2A44500F2B8801846A4EB0C0487
:1003600040EA08409DE731463046BDE8F087CEF1CF
:10037000200405FA0EF307FA0EF720FA04F83A0CF7
:1003800025FA04F448EA0308B4FBF2F14FEA1845F1
:1003900002FB11441FFA87FC45EA044501FB0CF3FC
:1003A000AB4200FA0EF409D9ED1901F1FF3080F0EB
:1003B0008A80AB4240F2878002393D44EB1A1FFA33
:1003C00088F5B3FBF2F002FB103345EA034500FB6E
:1003D0000CF3AB4207D9ED1900F1FF386FD2AB42F5
:1003E0006DD902383D44EB1A40EA01418FE7C1F173
:1003F000200722FA07F88B4005FA01F448EA0303C4
:1004000020FA07FE4FEA134CFD404EEA040EB5FBFE
:10041000FCF94FEA1E440CFB19551FFA83F844EA15
:10042000054509FB08F4AC4202FA01F200FA01FAB0
:1004300008D9ED1809F1FF3043D2AC4241D9A9F1F6
:1004400002091D442D1B1FFA8EFEB5FBFCF00CFBB0
:1004500010554EEA054400FB08F8A04507D9E418FA
:1004600000F1FF3529D2A04527D902381C4440EAC3
:100470000940A4EB0804A0FB02894C45C6464D4642
:1004800015D312D056B1BAEB0E0364EB050404FA8F
:1004900007F7CB401F43CC40376074600021BDE8B4
:1004A000F0871846F8E69046E0E6C245EAD2B8EB97
:1004B000020E69EB03050138E4E72846D7E740461A
:1004C00091E78146BEE7014678E702383C4445E7BC
:1004D000084608E7A8F102083D442BE7704700BF33
:1004E00080B500AF0E4A0E4B1B6843F400731360D7
:1004F0000B4A0B4B1B6843F480631360084A084B9C
:100500001B6843F480731360032000F04BF90F2045
:1005100000F008F80AF0D4FC0023184680BD00BFA4
:10052000003C024080B582B000AF7860124B1A6880
:10053000124B1B7819464FF47A73B3FBF1F3B2FBFD
:10054000F3F3184600F063F90346002B01D00123B2
:100550000EE07B680F2B0AD8002279684FF0FF303D
:1005600000F02BF9064A7B681360002300E00123AA
:1005700018460837BD4680BD3C000020040000201E
:100580000000002080B400AF064B1B781A46064BD3
:100590001B681344044A136000BFBD465DF8047B2A
:1005A000704700BF04000020E03F002080B400AF8F
:1005B000034B1B681846BD465DF8047B704700BFBF
:1005C000E03F002080B584B000AF7860FFF7EEFF19
:1005D000B8607B68FB60FB68B3F1FF3F05D0094B57
:1005E0001B781A46FB681344FB6000BFFFF7DEFF71
:1005F0000246BB68D21AFB689A42F7D300BF103795
:10060000BD4680BD0400002080B485B000AF786096
:100610007B6803F00703FB600C4BDB68BB60BA68C8
:100620004FF6FF031340BB60FB681A02BB6813431D
:1006300043F0BF6343F40033BB60044ABB68D3603C
:1006400000BF1437BD465DF8047B704700ED00E045
:1006500080B400AF044BDB681B0A03F007031846A5
:10066000BD465DF8047B704700ED00E080B483B0C8
:1006700000AF0346FB7197F90730002B0BDB0949EC
:1006800097F907305B09FA7902F01F02012000FA9E
:1006900002F241F8232000BF0C37BD465DF8047B11
:1006A000704700BF00E100E080B483B000AF0346B4
:1006B0003960FB7197F90730002B0ADB0D4997F978
:1006C00007303A68D2B21201D2B20B4483F8002349
:1006D0000AE00949FB7903F00F03043B3A68D2B200
:1006E0001201D2B20B441A7600BF0C37BD465DF83A
:1006F000047B704700E100E000ED00E080B489B0C9
:1007000000AFF860B9607A60FB6803F00703FB6133
:10071000FB69C3F10703042B28BF0423BB61FB69FA
:100720000433062B02D9FB69033B00E000237B6105
:100730000122BB6902FA03F35A1EBB681A407B69A7
:100740009A4001217B6901FA03F3591E7B680B4033
:10075000134318462437BD465DF8047B70470000FC
:1007600080B582B000AF78607B68013BB3F1807FD9
:1007700001D301230FE00A4A7B68013B53600F213C
:100780004FF0FF30FFF790FF054B00229A60044BBB
:1007900007221A60002318460837BD4680BD00BFF7
:1007A00010E000E080B582B000AF78607868FFF7B5
:1007B0002BFF00BF0837BD4680BD80B586B000AFB7
:1007C0000346B9607A60FB7300237B61FFF740FF4B
:1007D00078617A68B9687869FFF790FF024697F9FF
:1007E0000F3011461846FFF75FFF00BF1837BD46B0
:1007F00080BD80B582B000AF0346FB7197F907302A
:100800001846FFF733FF00BF0837BD4680BD80B5EF
:1008100082B000AF78607868FFF7A2FF0346184601
:100820000837BD4680BD000080B586B000AF786057
:1008300000237B61FFF7BAFE38617B68002B01D192
:10084000012399E07B68002283F834207B68022230
:1008500083F835207B681B687A681268126822F07A
:1008600001021A600FE0FFF7A1FE02463B69D31AAE
:10087000052B08D97B6820225A657B68032283F800
:100880003520032378E07B681B681B6803F00103B5
:10089000002BE8D17B681B681B687B617A69384B49
:1008A00013407B617B685A687B689B681A437B684E
:1008B000DB681A437B681B691A437B685B691A43D0
:1008C0007B689B691A437B68DB691A437B681B6AF8
:1008D00013437A6913437B617B685B6A042B07D1FE
:1008E0007B68DA6A7B681B6B13437A6913437B610D
:1008F0007B681B687A691A607B681B685B697B612F
:100900007B6923F007037B617B685B6A7A69134329
:100910007B617B685B6A042B17D17B689B6A7A6971
:1009200013437B617B68DB6A002B0ED0786800F094
:1009300099FA0346002B08D07B6840225A657B68F1
:10094000012283F83520012316E07B681B687A6951
:100950005A61786800F050FA0346FB607B68DB6DF3
:100960003F229A40FB689A607B6800225A657B6848
:10097000012283F83520002318461837BD4680BD74
:100980003F8010F080B586B000AFF860B9607A6043
:100990003B600023FB75FB689B6D3B61FB6893F834
:1009A0003430012B01D1022348E0FB68012283F897
:1009B0003420FB6893F83530DBB2012B37D1FB686C
:1009C000022283F83520FB6800225A653B687A686A
:1009D000B968F86800F0E2F9FB68DB6D3F229A40E5
:1009E0003B699A60FB681B68FA681268126842F0FB
:1009F00016021A60FB681B68FA681268526942F0B6
:100A000080025A61FB681B6C002B07D0FB681B68D7
:100A1000FA681268126842F008021A60FB681B68E4
:100A2000FA681268126842F001021A6005E0FB6879
:100A3000002283F834200223FB75FB7D184618370B
:100A4000BD4680BD80B483B000AF78607B6893F80A
:100A50003530DBB2022B04D07B6880225A6501233B
:100A60000CE07B68052283F835207B681B687A6878
:100A70001268126822F001021A60002318460C372F
:100A8000BD465DF8047B704780B586B000AF7860E6
:100A90000023BB60924B1B68924AA2FB03239B0A74
:100AA0007B617B689B6D3B613B691B68FB607B687E
:100AB000DB6D08229A40FB681340002B1AD07B683C
:100AC0001B681B6803F00403002B13D07B681B68B2
:100AD0007A681268126822F004021A607B68DB6D83
:100AE00008229A403B699A607B685B6D43F0010283
:100AF0007B685A657B68DB6D01229A40FB68134076
:100B0000002B12D07B681B685B6903F08003002B0D
:100B10000BD07B68DB6D01229A403B699A607B6851
:100B20005B6D43F002027B685A657B68DB6D0422D3
:100B30009A40FB681340002B12D07B681B681B682F
:100B400003F00203002B0BD07B68DB6D04229A407C
:100B50003B699A607B685B6D43F004027B685A6571
:100B60007B68DB6D10229A40FB681340002B43D05A
:100B70007B681B681B6803F00803002B3CD07B6874
:100B8000DB6D10229A403B699A607B681B681B688A
:100B900003F48023002B18D07B681B681B6803F4C8
:100BA0000023002B08D17B681B6C002B24D07B68B2
:100BB0001B6C786898471FE07B689B6C002B1BD0F0
:100BC0007B689B6C7868984716E07B681B681B689D
:100BD00003F48073002B07D17B681B687A68126866
:100BE000126822F008021A607B681B6C002B03D08D
:100BF0007B681B6C786898477B68DB6D20229A4085
:100C0000FB681340002B00F08E807B681B681B681C
:100C100003F01003002B00F086807B68DB6D202240
:100C20009A403B699A607B6893F83530DBB2052BBC
:100C300036D17B681B687A681268126822F0160247
:100C40001A607B681B687A681268526922F0800219
:100C50005A617B681B6C002B03D17B689B6C002B5B
:100C600007D07B681B687A681268126822F0080255
:100C70001A607B68DB6D3F229A403B699A607B6813
:100C8000002283F834207B68012283F835207B68BA
:100C90001B6D002B7DD07B681B6D7868984778E0D2
:100CA0007B681B681B6803F48023002B1CD07B68C7
:100CB0001B681B6803F40023002B08D17B685B6C66
:100CC000002B30D07B685B6C786898472BE07B68A2
:100CD000DB6B002B27D07B68DB6B7868984722E0C2
:100CE0003C000020B5814E1B7B681B681B6803F429
:100CF0008073002B0FD17B681B687A6812681268BA
:100D000022F010021A607B68002283F834207B688E
:100D1000012283F835207B68DB6B002B03D07B68D6
:100D2000DB6B786898477B685B6D002B32D07B6803
:100D30005B6D03F00103002B22D07B68052283F852
:100D400035207B681B687A681268126822F00102FD
:100D50001A60BB680133BB607A69934207D87B682D
:100D60001B681B6803F00103002BF2D100E000BFF9
:100D70007B68002283F834207B68012283F83520C9
:100D80007B68DB6C002B05D07B68DB6C7868984750
:100D900000E000BF1837BD4680BD00BF80B485B0FD
:100DA00000AFF860B9607A603B60FB681B68FA6866
:100DB0001268126822F480221A60FB681B683A6885
:100DC0005A60FB689B68402B08D1FB681B687A68F7
:100DD0009A60FB681B68BA68DA6007E0FB681B680A
:100DE000BA689A60FB681B687A68DA6000BF1437DB
:100DF000BD465DF8047B704780B485B000AF786075
:100E00007B681B68DBB2103B144AA2FB03231B095F
:100E1000FB60134AFB6813441B781A467B68DA654B
:100E2000FB68032B09D97B681B6823F47F7323F0CD
:100E300003031A1D7B689A6507E07B681B6823F42F
:100E40007F7323F003037A6893657B689B6D184674
:100E50001437BD465DF8047B704700BFABAAAAAA51
:100E60005CB3000880B485B000AF78600023FB73EA
:100E70007B689B6ABB607B689B69002B1FD1BB684A
:100E8000032B55D801A252F823F000BF9D0E000895
:100E9000AF0E00089D0E0008310F00087B68DB6A6A
:100EA00003F08073002B45D00123FB7342E07B6885
:100EB000DB6AB3F1C07F3FD10123FB733CE07B6869
:100EC0009B69B3F5005F21D1BB68032B36D801A223
:100ED00052F823F0E50E0008EB0E0008E50E0008BE
:100EE000FD0E00080123FB732FE07B68DB6A03F033
:100EF0008073002B24D00123FB7321E07B68DB6A25
:100F0000B3F1C07F1ED10123FB731BE0BB68022B32
:100F100002D9032B03D018E00123FB7315E07B6893
:100F2000DB6A03F08073002B0ED00123FB730BE010
:100F300000BF0AE000BF08E000BF06E000BF04E019
:100F400000BF02E000BF00E000BFFB7B1846143783
:100F5000BD465DF8047B704780B489B000AF78600F
:100F6000396000237B6100233B610023BB610023C8
:100F7000FB616BE10122FB6902FA03F37B613B68D1
:100F80001A687B6913403B613A697B699A4240F079
:100F90005A813B685B68022B03D03B685B68122B6D
:100FA00023D1FB69DA087B68083253F82230BB6131
:100FB000FB6903F007039B000F2202FA03F3DB43F4
:100FC000BA691340BB613B681A69FB6903F0070308
:100FD0009B0002FA03F3BA691343BB61FB69DA08A9
:100FE0007B680832B96943F822107B681B68BB61D3
:100FF000FB695B00032202FA03F3DB43BA69134087
:10100000BB613B685B6803F00302FB695B0002FAAB
:1010100003F3BA691343BB617B68BA691A603B6822
:101020005B68012B0BD03B685B68022B07D03B68E9
:101030005B68112B03D03B685B68122B30D17B6857
:101040009B68BB61FB695B00032202FA03F3DB438D
:10105000BA691340BB613B68DA68FB695B0002FA5E
:1010600003F3BA691343BB617B68BA699A607B6812
:101070005B68BB610122FB6902FA03F3DB43BA69D7
:101080001340BB613B685B681B0903F00102FB690D
:1010900002FA03F3BA691343BB617B68BA695A6009
:1010A0007B68DB68BB61FB695B00032202FA03F328
:1010B000DB43BA691340BB613B689A68FB695B001C
:1010C00002FA03F3BA691343BB617B68BA69DA6059
:1010D0003B685B6803F08053002B00F0B480002372
:1010E000FB605F4A5E4B5B6C43F4804353645C4B34
:1010F0005B6C03F48043FB60FB685A4AFB699B0806
:10110000023352F82330BB61FB6903F003039B00F9
:101110000F2202FA03F3DB43BA691340BB617B6819
:10112000514A93422BD07B68504A934225D07B682A
:101130004F4A93421FD07B684E4A934219D07B6836
:101140004D4A934213D07B684C4A93420DD07B6842
:101150004B4A934207D07B684A4A934201D1072306
:101160000EE008230CE006230AE0052308E0042330
:1011700006E0032304E0022302E0012300E0002351
:10118000FA6902F0030292009340BA691343BB610B
:101190003449FB699B080233BA6941F823203A4B72
:1011A0001B68BB613B69DB43BA691340BB613B68A9
:1011B0005B6803F48033002B03D0BA693B691343A7
:1011C000BB61314ABB6913602F4B5B68BB613B69F4
:1011D000DB43BA691340BB613B685B6803F40033CF
:1011E000002B03D0BA693B691343BB61264ABB6934
:1011F0005360254B9B68BB613B69DB43BA69134075
:10120000BB613B685B6803F48013002B03D0BA69B1
:101210003B691343BB611C4ABB6993601A4BDB6893
:10122000BB613B69DB43BA691340BB613B685B68E8
:1012300003F40013002B03D0BA693B691343BB616D
:10124000114ABB69D360FB690133FB61FB690F2B5A
:101250007FF690AE00BF2437BD465DF8047B704733
:101260000038024000380140000002400004024003
:1012700000080240000C024000100240001402402E
:1012800000180240001C0240003C014080B586B0BE
:1012900000AF78607B68002B01D101232DE27B68D1
:1012A0001B6803F00103002B75D0A34B9B6803F070
:1012B0000C03042B0CD0A04B9B6803F00C03082BF1
:1012C00012D19D4B5B6803F48003B3F5800F0BD103
:1012D000994B1B6803F40033002B5BD07B685B6881
:1012E000002B57D1012308E27B685B68B3F5803F90
:1012F00006D1914A904B1B6843F4803313601DE084
:101300007B685B68B3F5A02F0CD18B4A8A4B1B68B6
:1013100043F480231360884A874B1B6843F480336F
:1013200013600BE0844A844B1B6823F48033136002
:10133000814A814B1B6823F4802313607B685B68C0
:10134000002B13D0FFF732F9386108E0FFF72EF9D0
:1013500002463B69D31A642B01D90323CDE1764BB6
:101360001B6803F40033002BF0D014E0FFF71EF9E4
:10137000386108E0FFF71AF902463B69D31A642B7B
:1013800001D90323B9E16C4B1B6803F40033002B34
:10139000F0D100E000BF7B681B6803F00203002B64
:1013A00063D0654B9B6803F00C03002B0BD0624BA2
:1013B0009B6803F00C03082B1CD15F4B5B6803F4A4
:1013C0008003002B16D15C4B1B6803F00203002B3B
:1013D00005D07B68DB68012B01D001238DE15649E4
:1013E000554B1B6823F0F8027B681B69DB00134335
:1013F0000B603AE07B68DB68002B20D04F4B01226A
:101400001A60FFF7D3F8386108E0FFF7CFF802461B
:101410003B69D31A022B01D903236EE1464B1B68AB
:1014200003F00203002BF0D04349434B1B6823F029
:10143000F8027B681B69DB0013430B6015E03F4B30
:1014400000221A60FFF7B2F8386108E0FFF7AEF843
:1014500002463B69D31A022B01D903234DE1364BD7
:101460001B6803F00203002BF0D17B681B6803F0BC
:101470000803002B30D07B685B69002B16D0304B03
:1014800001221A60FFF792F8386108E0FFF78EF842
:1014900002463B69D31A022B01D903232DE1264BC7
:1014A0005B6F03F00203002BF0D015E0244B002209
:1014B0001A60FFF77BF8386108E0FFF777F802461B
:1014C0003B69D31A022B01D9032316E11A4B5B6F38
:1014D00003F00203002BF0D17B681B6803F00403C8
:1014E000002B00F0A0800023FB75134B1B6C03F056
:1014F0008053002B0FD10023FB600F4A0E4B1B6C57
:1015000043F0805313640C4B1B6C03F08053FB605F
:10151000FB680123FB750B4B1B6803F48073002BE6
:1015200021D1084A074B1B6843F480731360FFF70F
:101530003DF8386111E000BF00380240000047422A
:10154000800E474200700040FFF730F802463B69CA
:10155000D31A022B01D90323CFE06A4B1B6803F493
:101560008073002BF0D07B689B68012B06D1664A04
:10157000654B1B6F43F0010313671CE07B689B689E
:10158000052B0CD1604A604B1B6F43F004031367BB
:101590005D4A5D4B1B6F43F0010313670BE05A4A32
:1015A000594B1B6F23F001031367574A564B1B6FB0
:1015B00023F0040313677B689B68002B15D0FEF7AC
:1015C000F5FF38610AE0FEF7F1FF02463B69D31AE6
:1015D00041F28832934201D903238EE04A4B1B6FBC
:1015E00003F00203002BEED014E0FEF7DFFF3861BA
:1015F0000AE0FEF7DBFF02463B69D31A41F288326C
:10160000934201D9032378E03F4B1B6F03F00203A1
:10161000002BEED1FB7D012B05D13B4A3A4B1B6CD5
:1016200023F0805313647B689B69002B64D0364B96
:101630009B6803F00C03082B5CD07B689B69022B32
:1016400041D1324B00221A60FEF7B0FF386108E04A
:10165000FEF7ACFF02463B69D31A022B01D90323E4
:101660004BE0294B1B6803F00073002BF0D1264997
:101670007B68DA697B681B6A1A437B685B6A9B013B
:101680001A437B689B6A5B08013B1B041A437B6817
:10169000DB6A1B0613434B601C4B01221A60FEF7EA
:1016A00085FF386108E0FEF781FF02463B69D31AE7
:1016B000022B01D9032320E0134B1B6803F00073B6
:1016C000002BF0D018E0114B00221A60FEF76EFFDD
:1016D000386108E0FEF76AFF02463B69D31A022B25
:1016E00001D9032309E0084B1B6803F00073002BAA
:1016F000F0D101E0012300E0002318461837BD4671
:1017000080BD00BF007000400038024060004742CA
:1017100080B584B000AF786039607B68002B01D160
:101720000123CAE0674B1B6803F00F023B689A4233
:101730000CD2644B3A68D2B21A70624B1B6803F049
:101740000F023B689A4201D00123B6E07B681B6818
:1017500003F00203002B20D07B681B6803F0040316
:10176000002B05D0584A584B9B6843F4E0539360D4
:101770007B681B6803F00803002B05D0524A524BCC
:101780009B6843F4604393604F494F4B9B6823F041
:10179000F0027B689B6813438B607B681B6803F0D7
:1017A0000103002B44D07B685B68012B07D1464BBB
:1017B0001B6803F40033002B19D101237DE07B6803
:1017C0005B68022B03D07B685B68032B07D13E4B21
:1017D0001B6803F00073002B09D101236DE03A4B25
:1017E0001B6803F00203002B01D1012365E0364999
:1017F000354B9B6823F003027B685B6813438B6067
:10180000FEF7D4FEF8600AE0FEF7D0FE0246FB6861
:10181000D31A41F28832934201D903234DE02A4B77
:101820009B6803F00C027B685B689B009A42EBD1DB
:10183000244B1B6803F00F023B689A420CD9214BE2
:101840003A68D2B21A701F4B1B6803F00F023B6854
:101850009A4201D0012330E07B681B6803F0040347
:10186000002B08D01849184B9B6823F4E0527B6882
:10187000DB6813438B607B681B6803F00803002B55
:1018800009D01149104B9B6823F460427B681B69A7
:10189000DB0013438B6000F01DF801460A4B9B6888
:1018A0001B0903F00F03094AD35C21FA03F3084A2A
:1018B00013600F20FEF736FE002318461037BD4692
:1018C00080BD00BF003C024000380240405F03087A
:1018D0003C0000202DE9F04F8FB000AF0023FB62E9
:1018E00000237B630023BB6200233B63624B9B6846
:1018F00003F00C03042B07D0082B08D0002B40F07A
:10190000B2805E4B3B63B1E05D4B3B63AEE05A4B54
:101910005B6803F03F03FB62574B5B6803F4800393
:10192000002B4ED0544B5B689B094FF0000440F2F3
:10193000FF114FF0000201EA030102EA04020B4624
:10194000144660017862786A40EAD36078625B018D
:101950003B62D7E908345B1A64EB02044FEA84194E
:1019600049EA93694FEA8318B8EB030869EB040965
:101970004FEAC903FB61FB6943EA5873FB614FEA15
:10198000C803BB61D7E9068918EB010849EB0209D6
:101990004FEA49237B617B6943EAD8537B614FEA75
:1019A00048233B61D7E9048940464946FB6A4FF02A
:1019B00000041A462346FEF70BFC03460C467B63E5
:1019C00043E02D4B5B689B094FF0000440F2FF1190
:1019D0004FF0000201EA030102EA04020B4614463A
:1019E0006001F860F86840EAD360F8605B01BB60B2
:1019F000D7E902345B1A64EB0204A60146EA936657
:101A00009D01ED1A66EB0406F3007B607B6843EAF8
:101A100055737B60EB003B6097E860006D1846EB08
:101A200002064FEA862B4BEA955B4FEA852A55461C
:101A30005E4628463146FB6A4FF000041A462346AC
:101A4000FEF7C6FB03460C467B630B4B5B681B0C27
:101A500003F0030301335B00BB627A6BBB6AB2FB2A
:101A6000F3F33B6302E0054B3B6300BF3B6B18465F
:101A70003C37BD46BDE8F08F003802400024F4003A
:101A800000127A0080B400AF034B1B681846BD46B5
:101A90005DF8047B704700BF3C00002080B500AFBC
:101AA000FFF7F0FF0146054B9B689B0A03F0070315
:101AB000034AD35C21FA03F3184680BD0038024084
:101AC000505F030880B500AFFFF7DCFF0146054B10
:101AD0009B685B0B03F00703034AD35C21FA03F313
:101AE000184680BD00380240505F030880B582B0C0
:101AF00000AF78607B68002B01D101231DE07B687B
:101B000093F83430DBB2002B05D17B6800221A77C2
:101B1000786809F0E3F87B68032283F8342078685A
:101B200000F010F87B6800229A637B6800221A6339
:101B30007B68012283F83420002318460837BD460D
:101B400080BD0000B0B58EB004AF786000237B622A
:101B50000023FB6000233B6100237B610023BB610A
:101B60000023FB6176233B627B681D686C4607F1AE
:101B7000180393E8070084E8070007F10C030ECB75
:101B8000284601F021FF1C4B00221A607B681B686D
:101B9000184601F062FF184B01221A600220FEF77E
:101BA00011FD786800F0FCFF78627B6A002B0BD097
:101BB0007B68012283F834207B689A6B7B6A1A4326
:101BC0007B689A63012313E0786800F020FF786255
:101BD0007B6A002B0BD07B68012283F834207B6862
:101BE0009A6B7B6A1A437B689A63012300E00023A7
:101BF00018462837BD46B0BDA080254280B58CB0C0
:101C000000AFF860B9607A603B600023FB62BB689C
:101C1000002B07D1FB689B6B43F00062FB689A6363
:101C20000123ABE0FB6893F83430DBB2012B40F0CA
:101C3000A480FB6800229A637A683B681A44FB68B8
:101C4000DB6D9A4207D9FB689B6B43F00072FB681F
:101C50009A63012392E0FB68032283F83420FB6837
:101C60001B680022DA62FB681B68FA681268D26B94
:101C700042F49572DA63FB68DB6B424ADA63FB6815
:101C8000DB6B414ADA64FB68DB6B00221A65FB6898
:101C9000D86BFB681B6880331946BA683B685B02E7
:101CA0009B08FEF76FFE394B01221A60FB685B6CE4
:101CB000012B02D07B685B027B604FF0FF337B61BE
:101CC0003B685B02BB619023FB6102233B62002304
:101CD0007B620123BB62FB681B6807F1140211469B
:101CE000184601F022FFFB681B684FF4007118468C
:101CF00001F047FFF862FB6A002B10D0FB681B68FD
:101D000040F2FF529A63FB689A6BFB6A1A43FB68C6
:101D10009A63FB68012283F8342001232EE03B689C
:101D2000012B0AD9FB6882221A63FB681B68796859
:101D3000184601F06EFFF86209E0FB6881221A6321
:101D4000FB681B687968184601F03FFFF862FB6A80
:101D5000002B10D0FB681B6840F2FF529A63FB68AF
:101D60009A6BFB6A1A43FB689A63FB68012283F84B
:101D70003420012302E0002300E00223184630371C
:101D8000BD4680BD1F2800088D2800088C8525428F
:101D900080B58CB000AFF860B9607A603B6000231A
:101DA000FB62BB68002B07D1FB689B6B43F00062B2
:101DB000FB689A630123ABE0FB6893F83430DBB235
:101DC000012B40F0A480FB6800229A637A683B688C
:101DD0001A44FB68DB6D9A4207D9FB689B6B43F0A2
:101DE0000072FB689A63012392E0FB68032283F888
:101DF0003420FB681B680022DA62FB681B68FA6803
:101E00001268D26B42F01A02DA63FB681B6C424A1A
:101E1000DA63FB681B6C414ADA64FB681B6C0022C6
:101E20001A65FB685B6C012B02D07B685B027B60F0
:101E3000FB681B684FF40071184601F0A2FEF862BF
:101E4000FB6A002B10D0FB681B6840F2FF529A63BC
:101E5000FB689A6BFB6A1A43FB689A63FB68012272
:101E600083F83420012353E03B68012B0AD9FB6837
:101E7000A0221A63FB681B687968184601F011FFFD
:101E8000F86209E0FB6890221A63FB681B687968B6
:101E9000184601F0E2FEF862FB6A002B10D0FB68E6
:101EA0001B6840F2FF529A63FB689A6BFB6A1A4305
:101EB000FB689A63FB68012283F83420012327E042
:101EC000174B01221A60FB68186CB968FB681B6825
:101ED00080331A463B685B029B08FEF753FD4FF0C8
:101EE000FF337B613B685B02BB619023FB61002396
:101EF0003B6200237B620123BB62FB681B6807F126
:101F000014021146184601F010FE002300E00223DF
:101F100018463037BD4680BDF52700088D280008DB
:101F20008C85254280B584B000AF78600023FB60CB
:101F30007B681B685B6B03F48073002B00F08D8063
:101F40007B681B684FF480729A637B681A687B68B1
:101F50001B68DB6B23F44E7323F00203D3637B68AF
:101F60001B6B03F00803002B3AD07B681B6B03F05C
:101F70000203002B05D17B681B6B03F02003002BB1
:101F800011D07B681B68184601F0B0FEF860FB6852
:101F9000002B08D07B689A6BFB681A437B689A63B6
:101FA000786800F025F97B681B6840F2FF529A635D
:101FB0007B68012283F834207B681B6B03F00103EC
:101FC000002B05D17B681B6B03F00203002B03D0B1
:101FD000786808F077FA03E1786808F069FAFFE0BA
:101FE0007B681B6B03F08003002B00F0F9807B689B
:101FF0001B6B03F02003002B11D07B681B68184675
:1020000001F074FEF860FB68002B08D07B689A6BC7
:10201000FB681A437B689A63786800F0E9F87B688C
:102020001B6B03F00103002B40F0DA807B681B6B15
:1020300003F00203002B40F0D3807B681B687A68B2
:102040001268D26A22F00802DA627B68012283F801
:102050003420786808F02CFAC2E07B681B685B6B60
:1020600003F48043002B08D07B681B684FF4804248
:102070009A63786800F0F0FFB2E07B681B685B6BE6
:1020800003F40043002B08D07B681B684FF4004228
:102090009A63786800F0B8FFA2E07B681B685A6B0F
:1020A00040F23A231340002B00F09A807B681B68B3
:1020B0005B6B03F00203002B05D07B689B6B43F046
:1020C00002027B689A637B681B685B6B03F0080302
:1020D000002B05D07B689B6B43F008027B689A63FA
:1020E0007B681B685B6B03F02003002B05D07B68CB
:1020F0009B6B43F020027B689A637B681B685B6B79
:1021000003F01003002B05D07B689B6B43F010029B
:102110007B689A637B681B685B6B03F40073002B1E
:1021200005D07B689B6B43F008027B689A637B68F1
:102130001B6840F2FF729A637B681A687B681B68B1
:10214000DB6B23F44E7323F00203D3637B681B6BBA
:1021500003F08003002B36D07B681B6C002B11D062
:102160007B681B6C204A1A657B681B6C1846FEF75F
:1021700069FC0346002B33D07B681B6C184600F0CB
:10218000CAFB2DE07B68DB6B002B11D07B68DB6B1F
:10219000164A1A657B68DB6B1846FEF753FC03464C
:1021A000002B1DD07B68DB6B184600F0F2FB17E0BC
:1021B0007B6800229A637B68012283F83420786868
:1021C00008F06CF90CE07B681B6B03F00803002B34
:1021D00006D07B68012283F83420786800F008F884
:1021E00000BF1037BD4680BD17290008932900089D
:1021F00080B483B000AF786000BF0C37BD465DF897
:10220000047B704790B484B000AF786039600023DD
:10221000FB607B685B6E1B0EFB60FB689B09DBB29F
:1022200003F00303DAB23B681A70FB689B08DBB269
:1022300003F00F03DAB23B685A70FB68DBB203F0BD
:102240000303DAB23B689A707B685B6E1B0CDBB2EF
:10225000FB60FB68DAB23B68DA707B685B6E1B0A76
:10226000DBB2FB60FB68DAB23B681A717B685B6EBD
:10227000DBB2FB60FB68DAB23B685A717B689B6E2D
:102280001B0EFB60FB689BB21B019AB23B68DA80B5
:102290007B689B6E1B0CDBB2FB603B68DB889AB2F1
:1022A000FB681B099BB203F00F039BB213439AB266
:1022B0003B68DA80FB68DBB203F00F03DAB23B68FD
:1022C0001A727B689B6E1B0ADBB2FB60FB68DB0942
:1022D000DBB203F00103DAB23B685A72FB689B0978
:1022E000DBB203F00103DAB23B689A72FB685B0968
:1022F000DBB203F00103DAB23B68DA72FB681B0958
:10230000DBB203F00103DAB23B681A733B680022C8
:102310005A737B685B6C002B40F08680FB689B02E5
:1023200003F440623B681A617B689B6EDBB2FB6022
:102330003B681A69FB689B001A433B681A617B681B
:10234000DB6E1B0EDBB2FB603B681A69FB689B0906
:1023500003F003031A433B681A61FB68DB08DBB236
:1023600003F00703DAB23B681A75FB68DBB203F0CF
:102370000703DAB23B685A757B68DB6E1B0CDBB275
:10238000FB60FB685B09DBB203F00703DAB23B6872
:102390009A75FB689B08DBB203F00703DAB23B686F
:1023A000DA75FB68DBB25B00DBB203F00603DAB27E
:1023B0003B681A767B68DB6E1B0ADBB2FB603B680E
:1023C0001B7EDAB2FB68DB09DBB203F00103DBB290
:1023D0001343DAB23B681A763B681B695A1C7B6868
:1023E0005A653B681B7EDBB2023301229A407B6850
:1023F0005B6D02FB03F27B685A653B681B7ADBB2BC
:102400001A46012303FA02F27B689A657B685B6DCA
:102410007A68926D520A02FB03F27B68DA657B6888
:102420004FF400721A6651E07B685B6C012B3CD163
:102430007B689B6EDBB2FB60FB681B0403F47C12C1
:102440003B681A617B68DB6E1B0EDBB2FB603B688E
:102450001A69FB681B021A433B681A617B68DB6ED2
:102460001B0CDBB2FB603B681A69FB681A433B68D4
:102470001A617B68DB6E1B0ADBB2FB603B681B6981
:102480004FF00004013344F100049A027B685A655E
:102490007B685A6D7B68DA657B684FF400729A65D9
:1024A0007B689A6D7B681A6610E07B681B6840F257
:1024B000FF529A637B689B6B43F080527B689A6300
:1024C0007B68012283F834200123C1E0FB689B096B
:1024D000DBB203F00103DAB23B685A76FB68DBB289
:1024E0005B00DBB203F07E03DAB23B689A767B686E
:1024F000DB6EDBB2FB603B689B7EDAB2FB68DB091C
:10250000DBB203F00103DBB21343DAB23B689A7625
:10251000FB68DBB203F07F03DAB23B68DA767B68F4
:102520001B6F1B0EDBB2FB60FB68DB09DBB203F049
:102530000103DAB23B681A77FB685B09DBB203F090
:102540000303DAB23B685A77FB689B08DBB203F0FF
:102550000703DAB23B689A77FB68DBB29B00DBB219
:1025600003F00C03DAB23B68DA777B681B6F1B0C55
:10257000DBB2FB603B68DB7FDAB2FB689B09DBB256
:1025800003F00303DBB21343DAB23B68DA77FB688C
:102590005B09DBB203F00103DAB23B6883F8202069
:1025A0003B68002283F82120FB68DBB203F00103C3
:1025B000DAB23B6883F822207B681B6F1B0ADBB210
:1025C000FB60FB68DB09DBB203F00103DAB23B68B6
:1025D00083F82320FB689B09DBB203F00103DAB226
:1025E0003B6883F82420FB685B09DBB203F001033E
:1025F000DAB23B6883F82520FB681B09DBB203F0E5
:102600000103DAB23B6883F82620FB689B08DBB243
:1026100003F00303DAB23B6883F82720FB68DBB2E0
:1026200003F00303DAB23B6883F828207B681B6F52
:10263000DBB2FB60FB685B08DBB203F07F03DAB25E
:102640003B6883F829203B68012283F82A20002375
:1026500018461037BD4690BC704780B483B000AFB9
:10266000786039607B685A6C3B681A607B689A6C4A
:102670003B685A607B68DA6C3B689A607B681A6DCD
:102680003B68DA607B685A6D3B681A617B689A6DBB
:102690003B685A617B68DA6D3B689A617B681A6EA9
:1026A0003B68DA61002318460C37BD465DF8047BB1
:1026B0007047B0B58EB004AF7860396000237B629C
:1026C0007B68032283F834207B685B6C032B2ED05D
:1026D0003B68B3F5805F06D17B689B6B43F080520B
:1026E0007B689A6329E03B68B3F5006F0AD178688C
:1026F00000F028FB78627B689A6B7B6A1A437B68E0
:102700009A631AE03B68002B0AD1786800F067FBF7
:1027100078627B689A6B7B6A1A437B689A630CE0E9
:102720007B689B6B43F000627B689A6305E07B6883
:102730009B6B43F080527B689A637B689B6B002B9A
:102740000AD07B681B6840F2FF529A637B680122C3
:1027500083F83420012324E07B685B68FB607B689E
:102760009B683B617B68DB687B613B68BB617B6826
:102770005B69FB617B689B693B627B681D686C469B
:1027800007F1180393E8070084E8070007F10C033A
:102790000ECB284601F018F97B68012283F834201B
:1027A000002318462837BD46B0BD80B586B000AFBF
:1027B00078600423FB7500233B610023FB6007F175
:1027C0000C031946786800F093FA38613B69002BD6
:1027D00005D07B689A6B3B691A437B689A63FB68F8
:1027E0005B0ADBB203F00F03FB75FB7D184618375D
:1027F000BD4680BD80B485B000AF78607B689B6BC0
:10280000FB60FB681B68FA681268D26B42F4807246
:10281000DA6300BF1437BD465DF8047B704780B5AE
:1028200084B000AF78607B689B6BFB600023BB606B
:10283000FB681B6B822B11D1FB681B68184601F0EB
:1028400055FAB860BB68002B08D0FB689A6BBB6870
:102850001A43FB689A63F868FFF7CAFCFB681B68B9
:10286000FA681268D26A22F00802DA62FB681B6812
:1028700040F2FF529A63FB68012283F83420F86823
:1028800007F020FE00BF1037BD4680BD80B584B084
:1028900000AF78607B689B6BFB60FB68DB6B5B6DFC
:1028A000012B04D0FB681B6C5B6D012B2CD1FB68EA
:1028B0001B6840F2FF529A63FB681B68FA68126853
:1028C000D26B22F49D72DA63FB689B6B43F080420B
:1028D000FB689A63F868FFF768FF0346FB72FB7AB0
:1028E000062B02D0FB7A052B0AD1FB681B68184621
:1028F00001F0FCF90246FB689B6B1A43FB689A6384
:10290000FB68012283F83420F868FFF771FC00BFF0
:102910001037BD4680BD80B584B000AF78607B685D
:102920009B6BFB60FB681B6C002B02D0FB680022DA
:102930001A64FB68DB6B002B27D1F868FFF735FFC3
:102940000346FB72FB6800229A63FB68012283F84E
:102950003420FB7A062B02D0FB7A052B15D1FB68BD
:102960001B68184601F0C2F90246FB689B6B1A43CC
:10297000FB689A63FB689B6B002B03D0F86807F039
:102980008DFD02E0F868FFF733FC00BF1037BD464D
:1029900080BD80B584B000AF78607B689B6BFB60C6
:1029A000FB68DB6B002B02D0FB680022DA63FB685C
:1029B0001B6C002B27D1F868FFF7F7FE0346FB726C
:1029C000FB6800229A63FB68012283F83420FB7ABB
:1029D000062B02D0FB7A052B15D1FB681B68184625
:1029E00001F084F90246FB689B6B1A43FB689A630B
:1029F000FB689B6B002B03D0F86807F04FFD02E0EB
:102A0000F868FFF7F5FB00BF1037BD4680BDB0B5D5
:102A100094B004AF78600023FB630123FB817B68E3
:102A20001B68184601F027F80346002B02D14FF02F
:102A30008063B1E07B685B6C032B2FD07B681B68E5
:102A4000184601F06DFAF863FB6B002B01D0FB6BAD
:102A5000A2E07B681B680021184601F051F802468D
:102A60007B685A677B681B680421184601F048F8A8
:102A700002467B689A677B681B680821184601F04C
:102A80003FF802467B68DA677B681B680C211846B2
:102A900001F036F802467B68C3F880207B685B6CE7
:102AA000032B0DD07B681B6807F10E0211461846F8
:102AB00001F077FAF863FB6B002B01D0FB6B6BE046
:102AC0007B685B6C032B36D0FB891A467B681A65E2
:102AD0007B681A687B681B6D1B041946104601F061
:102AE0003FFAF863FB6B002B01D0FB6B54E07B6873
:102AF0001B680021184601F003F802467B685A66FD
:102B00007B681B680421184600F0FAFF02467B68C8
:102B10009A667B681B680821184600F0F1FF0246A0
:102B20007B68DA667B681B680C21184600F0E8FFBA
:102B300002467B681A677B681B680421184600F010
:102B4000DFFF03461A0D7B68DA6407F110031946AC
:102B50007868FFF757FB7B6819687B681B6D1B045F
:102B60004FF000041A462346084601F0E3F8F863E4
:102B7000FB6B002B01D0FB6B0EE07B681D687B6854
:102B80006C4603F1100207CA84E8070004330ECB39
:102B9000284600F019FF002318464037BD46B0BD57
:102BA00080B586B000AF78600023BB6000237B61F6
:102BB00000233B610023FB607B681B68184601F023
:102BC000DEF8F860FB68002B01D0FB688CE07B68C6
:102BD0001B68184601F0F3F8F860FB68002B3DD045
:102BE0007B6800229A6432E0BB685A1CBA604FF6D8
:102BF000FF72934202D14FF0807375E07B681B68CF
:102C00000021184601F0FCF8F860FB68002B02D0A8
:102C10004FF0805368E07B681B680021184601F084
:102C200013F9F860FB68002B02D04FF080535BE093
:102C30007B681B680021184600F062FF78617B69A1
:102C4000DB0F012B01D1012300E000233B613B6935
:102C5000002BC9D07B6800225A6444E07B680122C3
:102C60009A6431E0BB685A1CBA604FF6FF72934217
:102C700002D14FF0807337E07B681B680021184653
:102C800001F0BEF8F860FB68002B01D0FB682BE078
:102C90007B681B684FF08041184601F0D5F8F8605A
:102CA000FB68002B01D0FB681EE07B681B680021DD
:102CB000184600F025FF78617B69DB0F012B01D1FD
:102CC000012300E000233B613B69002BCAD07B69F4
:102CD00003F08043002B03D07B6801225A6402E09A
:102CE0007B6800225A64002318461837BD4680BD11
:102CF00080B584B000AF786039600023FB603B682A
:102D0000002B02D14FF0006318E07B681A687B68E3
:102D10001B6D1B041946104601F066F9F860FB684C
:102D2000002B01D0FB6809E07B681B680021184676
:102D300000F0E6FE02463B681A6000231846103792
:102D4000BD4680BD80B586B000AF78600023FB60D3
:102D500000233B6100237B617B681B6800211846D0
:102D600000F0CEFE034603F00073B3F1007F02D102
:102D70004FF400632FE007F10C031946786800F068
:102D80007BF878617B69002B01D07B6923E03B698C
:102D900003F48023002B1CD07B681A687B681B6DB2
:102DA0001B041946104601F02BF878617B69002B53
:102DB00001D07B690FE07B681B680221184601F097
:102DC00068F878617B69002B01D07B6903E0002300
:102DD00001E04FF0806318461837BD4680BD80B5CE
:102DE00086B000AF78600023FB6000233B610023C6
:102DF0007B617B681B680021184600F081FE03465A
:102E000003F00073B3F1007F02D14FF400632FE0B1
:102E100007F10C031946786800F02EF878617B6999
:102E2000002B01D07B6923E03B6903F48033002B46
:102E30001CD07B681A687B681B6D1B041946104602
:102E400000F0DEFF78617B69002B01D07B690FE029
:102E50007B681B680021184601F01BF878617B69CC
:102E6000002B01D07B6903E0002301E04FF0806379
:102E700018461837BD4680BD90B58FB000AF78605A
:102E8000396000233B63FDF791FBF86200237B630D
:102E90000023FB6000233B617B681B680821184608
:102EA00000F06FFE38633B6B002B01D03B6BA7E05B
:102EB0007B681A687B681B6D1B041946104600F07E
:102EC0009FFF38633B6B002B01D03B6B98E04FF0CA
:102ED000FF337B610823BB613023FB6102233B622C
:102EE00000237B620123BB627B681B6807F114022D
:102EF0001146184600F019FE7B681B68184600F062
:102F0000ECFF38633B6B002B22D03B6B78E07B6897
:102F10001B685B6B03F40013002B0ED07B6B9B00D4
:102F200007F10C02D4187B681B68184600F077FD87
:102F3000034623607B6B01337B63FDF737FB02465F
:102F4000FB6AD31AB3F1FF3F02D14FF0004357E0C1
:102F50007B681B685A6B40F22A431340002BD6D083
:102F60007B681B685B6B03F00803002B05D07B6854
:102F70001B6808229A63082342E07B681B685B6B2E
:102F800003F00203002B05D07B681B6802229A63C2
:102F9000022335E07B681B685B6B03F02003002B8A
:102FA00005D07B681B6820229A63202328E07B6879
:102FB0001B6840F2FF529A633B680433FA681106BB
:102FC000FA68120202F47F021143FA68120A02F44C
:102FD0007F421143FA68120E0A431A603B691A06CF
:102FE0003B691B0203F47F031A433B691B0A03F48A
:102FF0007F431A433B691B0E1A433B681A60002348
:1030000018463C37BD4690BD90B585B000AF78609E
:103010000023FB607B689B6ABB600023FB600DE0C4
:10302000FB689B00BA68D4187B681B68184600F0E0
:10303000F6FC03462360FB680133FB60FB68072B4B
:10304000EED97B689B6A03F120027B689A620023B9
:1030500018461437BD4690BD80B584B000AF786087
:103060000023FB607B681B6ABB600023FB600BE0F6
:103070007B681868FB689B00BA681344194600F027
:10308000DBFCFB680133FB60FB68072BF0D97B6836
:103090001B6A03F120027B681A620023184610376E
:1030A000BD4680BD80B582B000AF78607B68002BE4
:1030B00001D101233FE07B6893F83930DBB2002B6C
:1030C00006D17B68002283F83820786807F0E2FF99
:1030D0007B68242283F839207B681B687A68126831
:1030E000D26822F40052DA60786800F063FA7B68F4
:1030F0001B687A681268126922F490421A617B6830
:103100001B687A681268526922F02A025A617B6849
:103110001B687A681268D26842F40052DA607B68F1
:103120000022DA637B68202283F839207B68202222
:1031300083F83A20002318460837BD4680BD0000BA
:1031400080B588B000AF78607B681B681B68FB6146
:103150007B681B68DB68BB617B681B685B697B61A4
:1031600000233B610023FB60FB6903F00F033B611D
:103170003B69002B0DD1FB6903F02003002B08D025
:10318000BB6903F02003002B03D0786800F091F9AD
:10319000CCE03B69002B00F0AB807B6903F00103BE
:1031A000002B05D1BB6903F49073002B00F0A080C5
:1031B000FB6903F00103002B0AD0BB6903F48073A1
:1031C000002B05D07B68DB6B43F001027B68DA6380
:1031D000FB6903F00403002B0AD07B6903F00103B1
:1031E000002B05D07B68DB6B43F002027B68DA635F
:1031F000FB6903F00203002B0AD07B6903F0010393
:10320000002B05D07B68DB6B43F004027B68DA633C
:10321000FB6903F00803002B0AD07B6903F001036C
:10322000002B05D07B68DB6B43F008027B68DA6318
:103230007B68DB6B002B78D0FB6903F02003002B4D
:1032400007D0BB6903F02003002B02D0786800F0A0
:1032500030F97B681B685B6903F04003402B0CBFAF
:1032600001230023DBB2FB607B68DB6B03F0080308
:10327000002B02D1FB68002B31D0786800F07AF87F
:103280007B681B685B6903F04003402B23D17B689C
:103290001B687A681268526922F040025A617B68A2
:1032A0005B6B002B13D07B685B6B224A1A657B68D3
:1032B0005B6B1846FDF7C6FB0346002B16D07B68F8
:1032C0005B6B1B6D7A68526B104698470EE078680E
:1032D00000F046F80AE0786800F042F806E0786806
:1032E00000F03EF87B680022DA631EE000BF1CE0BD
:1032F000FB6903F08003002B08D0BB6903F0800357
:10330000002B03D0786800F067F80FE0FB6903F04A
:103310004003002B0AD0BB6903F04003002B05D00B
:10332000786800F0AEF800BF00E000BF2037BD466F
:1033300080BD00BFB133000880B483B000AF7860B7
:1033400000BF0C37BD465DF8047B704780B483B086
:1033500000AF786000BF0C37BD465DF8047B704756
:1033600080B483B000AF786000BF0C37BD465DF815
:10337000047B704780B483B000AF78607B681B68C3
:103380007A681268D26822F49072DA607B681B68EF
:103390007A681268526922F001025A617B68202221
:1033A00083F83A2000BF0C37BD465DF8047B7047B8
:1033B00080B584B000AF78607B689B6BFB60FB6876
:1033C0000022DA85FB680022DA84F868FFF7C8FF7C
:1033D00000BF1037BD4680BD80B485B000AF7860B7
:1033E0007B6893F83930DBB2212B43D17B689B6833
:1033F000B3F5805F19D17B681B6AFB607B681B6833
:10340000FA681288C2F308025A607B681B69002BB5
:1034100005D17B681B6A9A1C7B681A620EE07B6888
:103420001B6A5A1C7B681A6208E07B681A687B6812
:103430001B6A581C796808621B7853607B68DB8CB8
:103440009BB2013B9BB27A681946D184002B0FD105
:103450007B681B687A681268D26822F08002DA60A2
:103460007B681B687A681268D26842F04002DA60B2
:10347000002300E0022318461437BD465DF8047BA4
:10348000704780B582B000AF78607B681B687A684F
:103490001268D26822F04002DA607B68202283F84A
:1034A00039207868FFF748FF002318460837BD46E3
:1034B00080BD80B584B000AF78607B6893F83A3007
:1034C000DBB2222B71D17B689B68B3F5805F23D17F
:1034D0007B689B6AFB607B681B69002B0ED17B6855
:1034E0001B685B689BB2C3F308039AB2FB681A803F
:1034F0007B689B6A9A1C7B689A6229E07B681B68E0
:103500005B689BB2DBB29AB2FB681A807B689B6AED
:103510005A1C7B689A621BE07B681B69002B0AD1EE
:103520007B689B6A591C7A6891627A681268526853
:10353000D2B21A700CE07B689B6A591C7A6891625F
:103540007A6812685268D2B202F07F02D2B21A7060
:103550007B68DB8D9BB2013B9BB27A681946D185B3
:10356000002B20D17B681B687A681268D26822F031
:103570002002DA607B681B687A681268D26822F4DD
:103580008072DA607B681B687A681268526922F080
:1035900001025A617B68202283F83A207868FFF79D
:1035A000D5FE002302E0002300E002231846103776
:1035B000BD4680BDF0B585B000AF78607B681B6804
:1035C0007A681268126922F440517A68D2680A4314
:1035D0001A617B689A687B681B691A437B685B6920
:1035E0001A437B68DB691343FB607B681A687B685E
:1035F0001B68DB6823F4164323F00C03F9680B43C4
:10360000D3607B681B687A681268526922F4407143
:103610007A6892690A435A617B68DB69B3F5004FA7
:1036200040F0E4807B681B68AB4A934204D07B681F
:103630001B68AA4A93426CD17B681C68FEF742FA69
:10364000024613469B0013449A001A447B685B6849
:103650005B00B2FBF3F3A24AA2FB03235B091D014B
:10366000FEF730FA024613469B0013449A001A44B0
:103670007B685B685B00B2FBF3F6FEF723FA024659
:1036800013469B0013449A001A447B685B685B00F6
:10369000B2FBF3F3924AA2FB03235B09642202FB11
:1036A00003F3F31ADB0032338D4AA2FB03235B09D9
:1036B0005B0003F4F8731D44FEF704FA0246134658
:1036C0009B0013449A001A447B685B685B00B2FB62
:1036D000F3F6FEF7F7F9024613469B0013449A00EF
:1036E0001A447B685B685B00B2FBF3F37C4AA2FB85
:1036F00003235B09642202FB03F3F31ADB0032337A
:10370000774AA2FB03235B0903F007032B44A36062
:1037100054E17B681C68FEF7C1F9024613469B0022
:1037200013449A001A447B685B685B00B2FBF3F3B6
:103730006B4AA2FB03235B091D01FEF7AFF90246AA
:1037400013469B0013449A001A447B685B685B0035
:10375000B2FBF3F6FEF7A2F9024613469B001344B0
:103760009A001A447B685B685B00B2FBF3F35C4A27
:10377000A2FB03235B09642202FB03F3F31ADB00C1
:103780003233574AA2FB03235B095B0003F4F8734F
:103790001D44FEF783F9024613469B0013449A002A
:1037A0001A447B685B685B00B2FBF3F6FEF776F9C0
:1037B000024613469B0013449A001A447B685B68D8
:1037C0005B00B2FBF3F3464AA2FB03235B096422CE
:1037D00002FB03F3F31ADB003233414AA2FB03235B
:1037E0005B0903F007032B44A360E7E07B681B68D9
:1037F000394A934204D07B681B68384A934271D19E
:103800007B681C68FEF75EF9024613469B00134472
:103810009A001A447B685B689B00B2FBF3F3304A62
:10382000A2FB03235B091D01FEF74CF90246134678
:103830009B0013449A001A447B685B689B00B2FBB0
:10384000F3F6FEF73FF9024613469B0013449A0035
:103850001A447B685B689B00B2FBF3F3204AA2FB2F
:1038600003235B09642202FB03F3F31A1B013233C7
:103870001B4AA2FB03235B0903F0F0031D44FEF780
:1038800021F9024613469B0013449A001A447B68B0
:103890005B689B00B2FBF3F6FEF714F90246134691
:1038A0009B0013449A001A447B685B689B00B2FB40
:1038B000F3F30B4AA2FB03235B09642202FB03F32D
:1038C000F31A1B013233064AA2FB03235B0903F000
:1038D0000F032B44A36071E000100140001401406D
:1038E0001F85EB517B681C68FEF7D8F8024613462B
:1038F0009B0013449A001A447B685B689B00B2FBF0
:10390000F3F3304AA2FB03235B091D01FEF7C6F85F
:10391000024613469B0013449A001A447B685B6876
:103920009B00B2FBF3F6FEF7B9F8024613469B0084
:1039300013449A001A447B685B689B00B2FBF3F364
:10394000204AA2FB03235B09642202FB03F3F31A60
:103950001B0132331B4AA2FB03235B0903F0F00374
:103960001D44FEF79BF8024613469B0013449A0041
:103970001A447B685B689B00B2FBF3F6FEF78EF897
:10398000024613469B0013449A001A447B685B6806
:103990009B00B2FBF3F30B4AA2FB03235B096422F7
:1039A00002FB03F3F31A1B013233064AA2FB032383
:1039B0005B0903F00F032B44A360FFE700BF14373C
:1039C000BD46F0BD1F85EB5184B080B485B000AF1B
:1039D000786007F11C0080E80E000023FB60FA69A4
:1039E0003B6A1A437B6A1A43BB6A1A43FB6A1A434F
:1039F0003B6B1343FA681343FB607B685B6823F4FB
:103A0000FD4323F07F03FA681A437B685A60002362
:103A100018461437BD465DF8047B04B0704780B487
:103A200083B000AF78607B68D3F8803018460C37DD
:103A3000BD465DF8047B704780B483B000AF78600A
:103A400039603B681A687B68C3F8802000231846F9
:103A50000C37BD465DF8047B704780B483B000AF7F
:103A600078607B6803221A60002318460C37BD4635
:103A70005DF8047B704780B483B000AF78607B68EA
:103A80001B6803F0030318460C37BD465DF8047B42
:103A9000704780B485B000AF786039600023FB6068
:103AA0003B681A687B689A603B685A683B689B6809
:103AB0001A433B68DB681A433B681B691343FA6887
:103AC0001343FB607B68DB6823F47F6323F00F0301
:103AD000FA681A437B68DA60002318461437BD463B
:103AE0005DF8047B704780B483B000AF78607B687A
:103AF0001B69DBB218460C37BD465DF8047B704786
:103B000080B485B000AF786039600023FB607B68CB
:103B100014331A463B681344FB60FB681B68184665
:103B20001437BD465DF8047B704780B485B000AFA4
:103B3000786039600023FB603B681A687B685A62D2
:103B40003B685A687B689A623B689A683B68DB68A6
:103B50001A433B681B691A433B685B691343FA6865
:103B60001343FB607B68DB6A23F0F702FB681A43B0
:103B70007B68DA62002318461437BD465DF8047B83
:103B8000704780B588B000AF786039600023FB6172
:103B90003B68BB601023FB6040233B6100237B61DB
:103BA0004FF48063BB6107F1080319467868FFF79B
:103BB00070FF41F288321021786800F063FAF861F2
:103BC000FB6918462037BD4680BD80B588B000AF80
:103BD000786039600023FB613B68BB601123FB60A8
:103BE00040233B6100237B614FF48063BB6107F19D
:103BF000080319467868FFF74CFF41F2883211211B
:103C0000786800F03FFAF861FB6918462037BD4636
:103C100080BD80B588B000AF786039600023FB615B
:103C20003B68BB601223FB6040233B6100237B6148
:103C30004FF48063BB6107F1080319467868FFF70A
:103C400028FF41F288321221786800F01BFAF861EF
:103C5000FB6918462037BD4680BD80B588B000AFEF
:103C6000786039600023FB613B68BB601823FB6010
:103C700040233B6100237B614FF48063BB6107F10C
:103C8000080319467868FFF704FF41F288321821CB
:103C9000786800F0F7F9F861FB6918462037BD46EF
:103CA00080BD80B588B000AF786039600023FB61CB
:103CB0003B68BB601923FB6040233B6100237B61B1
:103CC0004FF48063BB6107F1080319467868FFF77A
:103CD000E0FE41F288321921786800F0D3F9F861EA
:103CE000FB6918462037BD4680BD000080B588B00E
:103CF00000AF78600023FB610023BB600C23FB60F6
:103D000040233B6100237B614FF48063BB6107F17B
:103D1000080319467868FFF7BCFE054A0C2178684D
:103D200000F0B0F9F861FB6918462037BD4680BD48
:103D300000E1F50580B58AB000AFF860C7E900235F
:103D400000237B623B683B6107237B614023BB61AF
:103D50000023FB614FF480633B6207F110031946B7
:103D6000F868FFF796FE41F288320721F86800F004
:103D700089F978627B6A18462837BD4680BD80B5D0
:103D800088B000AF78600023FB610023BB60002394
:103D9000FB6000233B6100237B614FF48063BB61C8
:103DA00007F1080319467868FFF773FE786800F09A
:103DB0003FF9F861FB6918462037BD4680BD80B5E4
:103DC00088B000AF78600023FB614FF4D573BB600F
:103DD0000823FB6040233B6100237B614FF4806339
:103DE000BB6107F1080319467868FFF752FE78684F
:103DF00000F010FBF861FB6918462037BD4680BD16
:103E000080B588B000AF786039600023FB613B6803
:103E1000BB603723FB6040233B6100237B614FF491
:103E20008063BB6107F1080319467868FFF731FE2C
:103E300041F288323721786800F024F9F861FB6993
:103E400018462037BD4680BD80B588B000AF786089
:103E500039600023FB613B6843F0004343F4801367
:103E6000BB602923FB6040233B6100237B614FF44F
:103E70008063BB6107F1080319467868FFF709FE04
:103E8000786800F025FAF861FB6918462037BD46CE
:103E900080BD80B588B000AF786039600023FB61D9
:103EA0003B68BB600623FB6040233B6100237B61D2
:103EB0004FF48063BB6107F1080319467868FFF788
:103EC000E8FD41F288320621786800F0DBF8F861FD
:103ED000FB6918462037BD4680BD80B588B000AF6D
:103EE00078600023FB610023BB603323FB60402329
:103EF0003B6100237B614FF48063BB6107F10803E2
:103F000019467868FFF7C5FD41F288323321786899
:103F100000F0B8F8F861FB6918462037BD4680BD4F
:103F200080B588B000AF78600023FB610023BB60E0
:103F30000223FB60C0233B6100237B614FF480635D
:103F4000BB6107F1080319467868FFF7A2FD78689E
:103F500000F07EF9F861FB6918462037BD4680BD48
:103F600080B588B000AF786039600023FB613B68A2
:103F7000BB600923FB60C0233B6100237B614FF4DE
:103F80008063BB6107F1080319467868FFF781FD7C
:103F9000786800F05DF9F861FB6918462037BD4686
:103FA00080BD80B588B000AF786039600023FB61C8
:103FB0000023BB600323FB6040233B6100237B6144
:103FC0004FF48063BB6107F1080319467868FFF777
:103FD00060FD3A680321786800F0AEF9F861FB698A
:103FE00018462037BD4680BD80B588B000AF7860E8
:103FF00039600023FB613B68BB600D23FB604023FD
:104000003B6100237B614FF48063BB6107F10803D0
:1040100019467868FFF73DFD41F288320D21786836
:1040200000F030F8F861FB6918462037BD4680BDC6
:1040300090B482B000AF7860104B1B68104AA2FBAE
:1040400003235B0A41F2883202FB03F423465C1E21
:10405000002B02D14FF000430AE07B685B6B03F05A
:104060008003002BF2D07B6840F2FF529A6300235A
:1040700018460837BD4690BC704700BF3C00002082
:10408000D34D621090B587B000AFF8600B467A60F0
:10409000FB726C4B1B686C4AA2FB03235B0A7A68B9
:1040A00002FB03F423465C1E002B02D14FF00043B9
:1040B000C3E0FB685B6B03F04503002BF2D0FB68A9
:1040C0005B6B03F00403002B04D0FB6804229A63AB
:1040D0000423B2E0FB685B6B03F00103002B04D008
:1040E000FB6801229A630123A7E0F868FFF7FBFC55
:1040F00003461A46FB7A934201D001239DE0FB68F8
:1041000040F2FF529A630021F868FFF7F9FC7861EA
:104110007A694E4B1340002B01D100238DE07B695F
:10412000002B02DA4FF0007387E07B6903F08043D5
:10413000002B01D0402380E07B6903F00053002B6B
:1041400001D0802379E07B6903F08053002B02D0FB
:104150004FF4807371E07B6903F00063002B02D0A1
:104160004FF4007369E07B6903F08063002B02D099
:104170004FF4806361E07B6903F08073002B02D011
:104180004FF4006359E07B6903F40003002B02D075
:104190004FF4805351E07B6903F48003002B02D07D
:1041A0004FF4005349E07B6903F40013002B02D065
:1041B0004FF4804341E07B6903F48013002B02D06D
:1041C0004FF4004339E07B6903F48023002B02D0D5
:1041D0004FF4003331E07B6903F40033002B02D04D
:1041E0004FF4802329E07B6903F48033002B02D055
:1041F0004FF4002321E07B6903F40043002B02D03D
:104200004FF4801319E07B6903F48043002B02D044
:104210004FF4001311E07B6903F40053002B02D02C
:104220004FF4800309E07B6903F00803002B02D000
:104230004FF4000301E04FF4803318461C37BD46AD
:1042400090BD00BF3C000020D34D621008E0FFFD90
:1042500090B482B000AF78601B4B1B681B4AA2FB76
:1042600003235B0A41F2883202FB03F423465C1EFF
:10427000002B02D14FF0004320E07B685B6B03F022
:104280004503002BF2D07B685B6B03F00403002B2B
:1042900004D07B6804229A6304230FE07B685B6B85
:1042A00003F00103002B04D07B6801229A630123F1
:1042B00004E07B6840F2FF529A63002318460837F7
:1042C000BD4690BC704700BF3C000020D34D62103B
:1042D00090B482B000AF7860154B1B68154AA2FB02
:1042E00003235B0A41F2883202FB03F423465C1E7F
:1042F000002B02D14FF0004315E07B685B6B03F0AD
:104300004503002BF2D07B685B6B03F00403002BAA
:1043100004D07B6804229A63042304E07B6840F2A3
:10432000FF529A63002318460837BD4690BC704779
:104330003C000020D34D621090B587B000AFF8600C
:104340000B467A60FB72314B1B68314AA2FB032398
:104350005B0A41F2883202FB03F423465C1E002B09
:1043600002D14FF000434CE0FB685B6B03F0450368
:10437000002BF2D0FB685B6B03F00403002B04D02E
:10438000FB6804229A6304233BE0FB685B6B03F049
:104390000103002B04D0FB6801229A63012330E063
:1043A000F868FFF7A0FB03461A46FB7A934201D058
:1043B000012326E0FB6840F2FF529A630021F8686F
:1043C000FFF79EFB78617B6903F46043002B06D105
:1043D0007B691B0C9AB27B681A80002311E07B6911
:1043E00003F48043002B02D04FF4005309E07B69B3
:1043F00003F40043002B02D04FF4805301E04FF44C
:10440000803318461C37BD4690BD00BF3C000020DD
:10441000D34D621090B482B000AF7860184B1B6827
:10442000184AA2FB03235B0A41F2883202FB03F421
:1044300023465C1E002B02D14FF000431AE07B683C
:104440005B6B03F04503002BF2D07B685B6B03F0E2
:104450000403002B04D07B6840229A63042309E004
:104460007B685B6B03F04003002B02D07B6840222B
:104470009A63002318460837BD4690BC704700BFBA
:104480003C000020D34D621080B584B000AF0346DD
:10449000FB71FB79084A9B0013445B685B68FA79FF
:1044A00005490A44127A104698470346FB73FB7B82
:1044B00018461037BD4680BD8400002080B584B00A
:1044C00000AF0346FB710023FB73FB790D4AD35CFD
:1044D000002B11D1FB790B4A0121D154FB79094AF8
:1044E0009B0013445B681B68FA7906490A44127AF8
:1044F000104698470346FB73FB7B18461037BD46B2
:1045000080BD00BF8400002090B587B000AFB960C7
:104510007A603B600346FB73FB7B0A4A9B001344B3
:104520005B689C68FB7B074A1344187A3B687A688F
:10453000B968A0470346FB75FB7D18461C37BD468E
:1045400090BD00BF8400002090B587B000AFB96077
:104550007A603B600346FB73FB7B0A4A9B00134473
:104560005B68DC68FB7B074A1344187A3B687A680F
:10457000B968A0470346FB75FB7D18461C37BD464E
:1045800090BD00BF8400002080B584B000AF03461A
:104590003A60FB710B46BB71FB79094A9B001344DF
:1045A0005B681B69FA7906490A44107AB9793A6856
:1045B00098470346FB73FB7B18461037BD4680BD0A
:1045C0008400002080B485B000AF78607B68013340
:1045D0001B78FB81FB891B021AB27B681B781BB21C
:1045E00013431BB2FB81FB8918461437BD465DF8A7
:1045F000047B704780B485B000AF78607B6803337C
:104600001B78FB60FB681B027A6802321278134346
:10461000FB60FB681B027A68013212781343FB606F
:10462000FB681B027A6812781343FB60FB6818462C
:104630001437BD465DF8047B704780B483B000AF8B
:1046400078600B467B807B685A1C7A607A88D2B28D
:104650001A707B881B0A7B807B685A1C7A607A8878
:10466000D2B21A7000BF0C37BD465DF8047B7047AC
:1046700080B483B000AF786039607B685A1C7A6080
:104680003A68D2B21A703B681B0A3B607B685A1CBE
:104690007A603A68D2B21A703B681B0A3B607B684A
:1046A0005A1C7A603A68D2B21A703B681B0A3B60A7
:1046B0007B685A1C7A603A68D2B21A7000BF0C3715
:1046C000BD465DF8047B704780B487B000AFF860EA
:1046D000B9607A60FB687B61BB683B617B68002BDB
:1046E0000DD07B695A1C7A613A69511C3961127884
:1046F0001A707B68013B7B607B68002BF1D100BFA7
:104700001C37BD465DF8047B704780B487B000AFAE
:10471000F860B9607A60FB687B617B695A1C7A61DA
:10472000BA68D2B21A707B68013B7B607B68002B51
:10473000F3D100BF1C37BD465DF8047B704780B4E1
:1047400089B000AFF860B9607A60FB68FB61BB6854
:10475000BB6100237B61FB695A1CFA611B78194617
:10476000BB695A1CBA611B78CB1A7B617B68013B21
:104770007B607B68002B02D07B69002BEBD07B69D0
:1047800018462437BD465DF8047B704780B483B07B
:1047900000AF7860396002E07B6801337B607B6842
:1047A0001B78002B05D07B681B781A463B689A4221
:1047B000F2D17B681B7818460C37BD465DF8047B48
:1047C000704780B582B000AF78607B68002B09D05D
:1047D0007B681B69184603F0A5F80346002B01D03F
:1047E000012300E0002318460837BD4680BD80B590
:1047F00082B000AF78600B46FB707B68002B0DD059
:10480000FB780C2B0AD0FB780B2B07D0FB780F2BF7
:1048100004D07B681B69184603F099F800BF08377D
:10482000BD4680BD80B485B000AF7860396000239C
:10483000BB60BB68FB6029E0274AFB681B0113448F
:104840001B68002B1DD0244AFB681B0113441A6807
:104850007B681B689A4216D11F4AFB681B011344F0
:1048600004331A687B689B689A420CD11A4AFB6829
:104870001B01134408331A687B685B699A4202D1B2
:1048800007E00123BB60FB680133FB60FB68012B81
:10489000D2D9FB68022B09D1BB68002B02D13B683F
:1048A000022B01D1002310E012230EE03B68002B05
:1048B00008D1094AFB681B0113440C331B88B3F56C
:1048C000807F01D1102300E0002318461437BD4635
:1048D0005DF8047B704700BF6400002080B483B0A3
:1048E00000AF00237B6002E07B6801337B607B6864
:1048F000012B06D8094A7B681B0113441B68002B57
:10490000F2D17B68022B14BF01230023DBB21846CF
:104910000C37BD465DF8047B704700BF6400002083
:1049200080B485B000AF786039600023FB601FE081
:10493000414AFB681B0113441A687B681B689A4252
:1049400013D13D4AFB681B01134404331A687B688A
:104950009B689A4209D1384AFB681B01134408330B
:104960001A687B685B699A4206D0FB680133FB607A
:10497000FB68012BDCD900E000BFFB68022B32D1C1
:104980000023FB6002E0FB680133FB60FB68012B46
:1049900006D8294AFB681B0113441B68002BF2D17F
:1049A000FB68022B01D1002340E07B681A68224992
:1049B000FB681B010B441A607B689A681E49FB6800
:1049C0001B010B4404331A607B685A691A49FB685F
:1049D0001B010B4408331A60174AFB681B01134480
:1049E0000C3300221A803B68002B09D0124AFB6866
:1049F0001B0113440C331B88002B01D0002315E04E
:104A00003B68002B08D10C4AFB681B0113440C3394
:104A10001B8801339AB201E04FF480720649FB68AB
:104A20001B010B440C331A80FB6801331846143702
:104A3000BD465DF8047B70476400002080B485B0FB
:104A400000AF78607B68013B7B607B68012B25D8D9
:104A5000174A7B681B0113440C331B88FB81FB89BD
:104A6000B3F5807F01D10023FB81FB89002B02D0AD
:104A7000FB89013BFB810E4A7B681B0113440C330D
:104A8000FA891A80FB89002B05D1094A7B681B0132
:104A9000134400221A6000237B7301E002237B731E
:104AA0007B7B18461437BD465DF8047B704700BF1A
:104AB0006400002080B485B000AF78600023FB6004
:104AC00010E00D4AFB681B0113441A687B689A4288
:104AD00005D1094AFB681B01134400221A60FB68D8
:104AE0000133FB60FB68012BEBD900BF1437BD46D7
:104AF0005DF8047B704700BF6400002080B586B07D
:104B000000AF78600023FB737B68DB78002B34D028
:104B10007B685B6B7B617B6858787B6803F138014D
:104B200001237A69FFF710FD0346002B02D0012311
:104B3000FB7322E07B680022DA707B689B6A7A69EB
:104B4000D21A7B681B6A9A4217D27B689B783B61BA
:104B500010E07B681B6A7A6913447B617B68587834
:104B60007B6803F1380101237A69FFF7EDFC3B69AB
:104B7000013B3B613B69012BEBD8FB7B18461837A7
:104B8000BD4680BD80B584B000AF78603960002339
:104B9000FB737B685A6B3B689A421BD07868FFF7BF
:104BA000ADFF0346FB73FB7B002B13D17B6858786A
:104BB0007B6803F1380101233A68FFF7A5FC03463F
:104BC000002B04D04FF0FF333B600123FB737B6865
:104BD0003A685A63FB7B18461037BD4680BD00001B
:104BE00080B584B000AF78607868FFF787FF034630
:104BF000FB73FB7B002B58D17B681B78032B48D1C0
:104C00007B681B79012B44D17B6838334FF40072E9
:104C100000211846FFF779FD7B68383303F5FF73F1
:104C20004AF655211846FFF708FD7B6838332149BD
:104C30001846FFF71DFD7B68383303F5F2731E49F4
:104C40001846FFF715FD7B68383303F5F4727B686F
:104C50009B6919461046FFF70BFD7B68383303F557
:104C6000F6727B685B6919461046FFF701FD7B68A9
:104C70005B6A5A1C7B685A637B6858787B6803F1CF
:104C800038017B685A6B0123FFF75EFC7B680022CA
:104C90001A717B685B78002200211846FFF774FCCC
:104CA0000346002B01D00123FB73FB7B1846103712
:104CB000BD4680BD525261417272416180B483B081
:104CC00000AF786039603B68023B3B607B68DB6922
:104CD0009A1E3B689A4201D8002308E07B685B89F2
:104CE0001A463B6803FB02F27B681B6B13441846B1
:104CF0000C37BD465DF8047B704780B586B000AFC9
:104D0000786039607B681B683B613B68012B04D984
:104D10003B69DA693B689A4202D801237B618CE0E7
:104D20004FF0FF337B613B691B78022B45D0032B8F
:104D30005DD0012B77D13B68FB60FB685B08FA68AC
:104D40001344FB603B699A6AFB685B0A134419468B
:104D50003869FFF717FF0346002B67D1FB685A1C21
:104D6000FA60C3F308033A69134493F83830BB6020
:104D70003B699A6AFB685B0A134419463869FFF776
:104D800001FF0346002B53D1FB68C3F308033A69C4
:104D9000134493F838301B021A46BB681343BB60B8
:104DA0003B6803F00103002B02D0BB681B0902E043
:104DB000BB68C3F30B037B613FE03B699A6A3B68C6
:104DC0001B0A134419463869FFF7DCFE0346002B23
:104DD00030D13B6903F138023B685B0003F4FF7399
:104DE00013441846FFF7EEFB03467B6125E03B6961
:104DF0009A6A3B68DB09134419463869FFF7C2FE1B
:104E00000346002B18D13B6903F138023B689B0035
:104E100003F4FE7313441846FFF7ECFB034623F03C
:104E200070437B6109E001237B6106E000BF04E081
:104E300000BF02E000BF00E000BF7B6918461837E2
:104E4000BD4680BD90B589B000AFF860B9607A60AA
:104E50000223FB77BB68012B40F2D680FB68DA693E
:104E6000BB689A4240F2D080FB681B78022B73D05B
:104E7000032B00F09180012B40F0C680BB68BB6122
:104E8000BB695B08BA691344BB61FB689A6ABB697A
:104E90005B0A13441946F868FFF774FE0346FB7774
:104EA000FB7F002B40F0A980FB6803F13802BB694F
:104EB000591CB961C3F3080313447B61BB6803F059
:104EC0000103002B0DD07B691B785BB203F00F034D
:104ED0005AB27B68DBB21B015BB213435BB2DBB23D
:104EE00001E07B68DBB27A691370FB680122DA703B
:104EF000FB689A6ABB695B0A13441946F868FFF7B6
:104F000041FE0346FB77FB7F002B78D1FB6803F162
:104F10003802BB69C3F3080313447B61BB6803F029
:104F20000103002B03D07B681B09DBB20EE07B6919
:104F30001B785BB223F00F035AB27B681B0A5BB28B
:104F400003F00F035BB213435BB2DBB27A691370F9
:104F5000FB680122DA7057E0FB689A6ABB681B0A9B
:104F600013441946F868FFF70DFE0346FB77FB7FF5
:104F7000002B46D1FB6803F13802BB685B0003F4E9
:104F8000FF7313447A6892B211461846FFF755FB37
:104F9000FB680122DA7037E0FB689A6ABB68DB09BC
:104FA00013441946F868FFF7EDFD0346FB77FB7FD6
:104FB000002B28D17B6823F07044FB6803F1380292
:104FC000BB689B0003F4FE7313441846FFF712FB03
:104FD000034603F0704323437B60FB6803F1380210
:104FE000BB689B0003F4FE73134479681846FFF70F
:104FF0003FFBFB680122DA7006E000BF04E000BF5F
:1050000002E000BF00E000BFFB7F18462437BD462A
:1050100090BD80B588B000AFF860B9607A600023B9
:10502000FB77FB681B68BB61BB68012B04D9BB69BC
:10503000DA69BB689A4201D802234BE07B68002BF7
:105040000CD04FF0FF327968B869FFF7FBFE0346DA
:10505000FB77FB7F002B01D0FB7F3BE0B968F86852
:10506000FFF74BFE78617B69002B31D07B69012B08
:1050700001D102232EE07B69B3F1FF3F01D101236F
:1050800028E00022B968B869FFF7DCFE0346FB7729
:10509000FB7F002B01D0FB7F1CE0BB699A69BB69D9
:1050A000DB69023B9A420BD2BB699B695A1CBB6904
:1050B0009A61BB691B7943F00103DAB2BB691A71CB
:1050C0007B69BB60BB69DA69BB689A42C6D800E0FD
:1050D00000BF002318462037BD4680BD80B588B08C
:1050E00000AF786039607B681B683B613B68002BD0
:1050F0000DD13B695B69BB61BB69002B04D03B6987
:10510000DA69BB699A421BD80123BB6118E0396890
:105110007868FFF7F2FDF860FB68012B01D80123E6
:1051200070E0FB68B3F1FF3F01D1FB686AE03B69C7
:10513000DA69FB689A4201D9FB6863E03B68BB61AE
:10514000BB69FB61FB690133FB613B69DA69FB69A0
:105150009A4207D80223FB61FA69BB699A4201D9D6
:1051600000234FE0F9697868FFF7C7FDF860FB6836
:10517000002B0ED0FB68012B03D0FB68B3F1FF3F7F
:1051800001D1FB683EE0FA69BB699A42DAD100239B
:1051900038E000BF4FF0FF32F9693869FFF752FE7F
:1051A0000346FB75FB7D002B09D13B68002B06D025
:1051B000FA6939683869FFF745FE0346FB75FB7DE0
:1051C000002B16D13B69FA695A613B699A693B69C0
:1051D000DB69023B9A4204D83B699B695A1E3B69D2
:1051E0009A613B691B7943F00103DAB23B691A719A
:1051F00007E0FB7D012B02D14FF0FF3300E00123DC
:10520000FB61FB6918462037BD4680BD80B487B07E
:1052100000AF786039607B681B68FB607B68DB6A85
:1052200004333B613B685B0AFA685289B3FBF2F3D3
:105230007B613B691A1D3A611B68BB60BB68002B30
:1052400001D1002310E07A69BB689A4207D37A69DA
:10525000BB68D31A7B613B6904333B61E9E700BF5C
:105260003B691A687B69134418461C37BD465DF8D4
:10527000047B704780B586B000AF786039607B688A
:105280001B683B613B68B3F5001F04D23B6803F029
:105290001F03002B01D0022363E07B683A685A6148
:1052A0007B689B687B617B69002B06D13B691B781F
:1052B000022B02D93B69DB6A7B617B69002B0CD135
:1052C0003B685B093A691289934201D3022348E0A3
:1052D0003B69DA6A7B68DA6129E03B695B895B02DA
:1052E000FB6019E07B6879691846FFF706FD786175
:1052F0007B69B3F1FF3F01D1012332E07B69012BD0
:1053000004D93B69DA697B699A4201D8022328E013
:105310003A68FB68D31A3B603A68FB689A42E1D26C
:1053200079693869FFF7CAFC02467B68DA617B68F5
:105330007A699A617B68DB69002B01D1022310E056
:105340007B68DA693B685B0A1A447B68DA613B690F
:1053500003F138023B68C3F308031A447B681A62FE
:10536000002318461837BD4680BD80B586B000AF13
:10537000786039607B681B68FB607B685B69203301
:10538000BB607B68DB69002B03D0BB68B3F5001FF3
:1053900001D30423AAE0BB68C3F30803002B40F049
:1053A00098807B68DB695A1C7B68DA617B689B6943
:1053B000002B0BD1BB685B09FA6812899342C0F0DD
:1053C00088807B680022DA6104238FE0BB685B0A77
:1053D000FA685289013A1340002B7AD17A687B68C7
:1053E0009B6919461046FFF788FC78617B69012BA1
:1053F00001D802237AE07B69B3F1FF3F01D1012399
:1054000074E0FB68DA697B699A4258D83B68002BE4
:1054100004D17B680022DA61042367E07A687B6844
:105420009B6919461046FFF759FE78617B69002B8E
:1054300001D107235AE07B69012B01D1022355E0FA
:105440007B69B3F1FF3F01D101234FE0F868FFF71B
:1054500055FB0346002B01D0012347E0FB6838339E
:105460004FF4007200211846FFF74FF900233B610B
:105470007969F868FFF722FC0246FB685A6312E07C
:10548000FB680122DA70F868FFF738FB0346002B4F
:1054900001D001232AE03B6901333B61FB685B6B70
:1054A0005A1CFB685A63FB685B891A463B699A423F
:1054B000E6D8FB685A6B3B69D21AFB685A637B6873
:1054C0007A699A617969F868FFF7F8FB02467B68A8
:1054D000DA617B68BA685A61FB6803F13802BB681D
:1054E000C3F308031A447B681A620023184618376E
:1054F000BD4680BD80B586B000AF786039607B68FE
:105500001B68FB6000217868FFF7B4FE0346FB755B
:10551000FB7D002B2BD100233B617B68DB691946A7
:10552000F868FFF72FFB0346FB75FB7D002B1DD1B1
:105530007B681B6A1B78E52B04D07B681B6A1B7891
:10554000002B07D13B6901333B613A693B689A42C2
:1055500002D10CE000233B6101217868FFF705FFD1
:105560000346FB75FB7D002BD7D000E000BFFB7D21
:10557000042B01D10723FB75FB7D18461837BD4668
:1055800080BD80B584B000AF786039603B681A3365
:105590001846FFF717F80346FB607B681B78032B60
:1055A00009D13B6814331846FFF70CF803461B0477
:1055B000FA681343FB60FB6818461037BD4680BD90
:1055C00080B584B000AFF860B9607A60BB681A3308
:1055D0007A6892B211461846FFF72FF8FB681B78DD
:1055E000032B09D1BB6803F114027B681B0C9BB22F
:1055F00019461046FFF721F800BF1037BD4680BDA1
:1056000090B587B000AF786039603B681A331846B0
:10561000FEF7D8FF0346002B01D0002359E03B687A
:105620001B7803F03F035A1E13465B0013449B0094
:1056300013447B610123FB8100233B6133E0274A54
:105640003B6913441B781A463B6813441846FEF71F
:10565000B9FF0346BB81FB89002B1AD07B69FE2B67
:1056600012D8BB89184602F0A9F803461C467B698C
:105670005A1C7A615B007A6813441B88184602F052
:105680009DF803469C4201D0002322E0BB89FB81A8
:1056900006E0BB894FF6FF72934201D0002318E069
:1056A0003B6901333B613B690C2BC8D93B681B78D4
:1056B00003F04003002B0BD0FB89002B08D07B6943
:1056C0005B007A6813441B88002B01D0002300E0A4
:1056D000012318461C37BD4690BD00BF64B30008C7
:1056E00080B588B000AFF860B96011461A460B4625
:1056F000FB711346BB71BB680D33BA791A70BB6876
:105700000B330F221A70BB680C3300221A70BB686F
:105710001A3300211846FEF790FFFB795A1E1346F4
:105720005B0013449B001344FB610023FB820023B6
:10573000BB61FB8A4FF6FF72934207D0FB695A1C8C
:10574000FA615B00FA6813441B88FB82174ABB6945
:1057500013441B781A46BB681344FA8A114618464C
:10576000FEF76BFFFB8A002B02D14FF6FF73FB8223
:10577000BB690133BB61BB690C2BDAD9FB8A4FF6DD
:10578000FF72934206D0FB695B00FA6813441B88E2
:10579000002B03D1FB7943F04003FB71BB68FA791E
:1057A0001A7000BF2037BD4680BD00BF64B300083B
:1057B00080B58CB000AFF860B9607A603B600B22B6
:1057C000B968F868FEF780FF3B68052B2BD93B686A
:1057D000FB6122E07B689A1C7A601B887B84002333
:1057E000BB6217E0FB695A007B8C03F00103134492
:1057F000FB617B8C5B087B84FB6903F48033002BAB
:1058000005D0FB6983F4883383F02103FB61BB6A15
:105810000133BB62BB6A0F2BE4D97B681B88002B6A
:10582000D8D1FB693B600723BB623B68DBB203F066
:105830000F03DBB2303387F82F3097F82F30392B36
:1058400004D997F82F30073387F82F30BB6A5A1ED8
:10585000BA6207F13002134497F82F2003F81C2C8A
:105860003B681B093B603B68002BDED107F114024B
:10587000BB6A13447E221A7000237B6217E0FA6829
:105880007B6A13441B78802B0ED9FA687B6A134419
:105890001B78FF2B08D0BB6A5A1E7B6A9A4200D144
:1058A0000FE07B6A01337B627B6A01337B627A6A39
:1058B000BB6A9A4205D2FA687B6A13441B78202B94
:1058C000DDD17B6A5A1C7A62FA681A44BB6A072BDC
:1058D00008D8BB6A591CB96207F130010B4413F8B0
:1058E0001C3C00E0202313707B6A072BE9D900BF22
:1058F0003037BD4680BD80B485B000AF78600023EE
:10590000FB730B23BB60FB7BDAB25208DB01134352
:10591000DAB27B68591C79601B781344FB73BB684F
:10592000013BBB60BB68002BEDD1FB7B18461437F5
:10593000BD465DF8047B704780B586B000AF7860E7
:105940007B681B683B6100217868FFF793FC034686
:10595000FB75FB7D002B01D0FB7DA9E0FF233B7590
:105960003B7D7B757B684FF0FF321A637B68DB6998
:1059700019463869FFF706F90346FB75FB7D002BD6
:1059800040F090807B681B6A1B78BB75BB7D002B49
:1059900002D10423FB758AE07B681B6A0B331B78FA
:1059A00003F03F03FB737B68FA7B9A71BB7DE52BA9
:1059B00007D0FB7B03F00803002B09D0FB7B0F2BE8
:1059C00006D0FF237B757B684FF0FF321A635EE0E1
:1059D000FB7B0F2B36D17B6893F82F3003F040030D
:1059E000002B54D1BB7D03F04003002B0DD07B680E
:1059F0001B6A5B7B3B75BB7D23F04003BB75BB7DA6
:105A00007B757B685A697B681A63BA7D7B7D9A4295
:105A100015D17B681B6A0D331B783A7D9A420ED1F3
:105A20003B69DA687B681B6A19461046FFF7E8FD98
:105A30000346002B03D07B7D013BDBB200E0FF235C
:105A40007B7524E07B7D002B09D17B681B6A18469F
:105A5000FFF751FF03461A463B7D934224D07B68F3
:105A600093F82F3003F00103002B0AD17B68186AEA
:105A70007B6824330B221946FEF761FE0346002B98
:105A800014D0FF237B757B684FF0FF321A6300212F
:105A90007868FFF76AFC0346FB75FB7D002B3FF43B
:105AA00065AF04E000BF02E000BF00E000BFFB7D87
:105AB00018461837BD4680BD80B58CB000AF786001
:105AC0007B681B68FB617B6893F82F3003F0A003B1
:105AD000002B01D00623E0E000237B6202E07B6A1A
